:020000040000FA
:20000000A90085C085C185C285C3604898481808A00028B1E571E791E908C8C004D0F328C6
:2000200068A86860488A489848A000B1E599CC00B1E799D000A90099D400C8C004D0ECA252
:200040002006CC26CD26CE26CF26D426D526D626D7A000380828B9D400F9D00099D800080D
:20006000C8C004D0F0289012A5D885D4A5D985D5A5DA85D6A5DB85D7E6CCCAD0C4A000B99D
:20008000CC0091E9B9D40091EBC8C004D0F168A868AA6860489848A000B1E599CC00B1E77F
:2000A00099D000A90091E9C8C004D0ED46D366D266D166D09013A000180828B1E979CC0043
:2000C00091E908C8C004D0F22806CC26CD26CE26CFA5D005D105D205D3D0D168A8686048BF
:2000E00098483808A00028B1E5F1E791E908C8C004D0F32868A86860A9158DD0FF6048AD6A
:20010000D0FF2902F0F9688DD1FF60488A489848ADD9FFC980D0F9A5C08DDAFFA5C18DDBAD
:20012000FFA5C28DDCFFA90085C08DD9FFA6C4A00286C1E82040E188D0F768A868AA6860E9
:20014000489848A000ADD9FFC9E0D0F9ADD8FF91C0C8D0F168A8686020EAE1AD0D0285047A
:20016000AD0E028508AD1002850CAD0B028500AD0C028501AD11028510AD12028511AD16F6
:20018000028514AD17028515A91485E5A90C85E7A91885E92094E0A91885E5A90885E720F1
:2001A0000BE0A91085E5A9A885E7A91C85E92094E0A91C85E5A90085E7A9CC85EB2024E060
:2001C000A90485E5A9A485E7A9D885E92094E0A91885E5A91C85E7A92085E9200BE0A92065
:2001E00085E5A9D885E720DFE060A90285C4200BE160489848A92885E5A9A485E7A9C085FF
:20020000E92094E0A9C085E5A90085E7A92C85EB2024E0A90885E7200BE020EAE12000E0FD
:20022000A90285C1A9C085E5A90085E6A92C85E7A90085E8A9C085E9A90085EA200BE0A0F5
:2002400000B1C08528C8B1C0852968A86860488A48A92885E5A90485E7A92485E92094E084
:20026000A92485E5A92085E7200BE0A9A085E7A20086C8A530C9DFB027A52485C0A52585B1
:20028000C1A52685C2A52785C3A53085C4200BE1200BE0E630E630E8E404D0D768AA6860C5
:2002A000A90185C8D0F6A9FF85288529A2002000E086C0A9C085E5A90085E6A91885E7A9D9
:2002C0000085E8A9C085E9A90085EA200BE020EAE12004E3E8E41CD0D5A528C9FFD00AA524
:2002E00029C9FFD00485C8F01AA9088530204EE2A5C8D00F20F2E1A528C9FFD0F0A529C901
:20030000F890EA60488A4898482000E0A90285C1A5C085DFA5C185E0A000B1DFF03EC9E580
:20032000F023A00BB1DF2902D01BA00B88B1DFD9A5E3D01198D0F5A01AB1DF8528C8B1DFA8
:2003400085294C5CE3A9C085E5A9A885E7A9C085E9200BE0E8E010F0034C10E368A868AAC6
:20036000686078D8A2FF9AA900AA9500E8D0FBA90185A0A90285A4A92085A820F8E0205886
:20038000E15820A6E2A5C8D0034C0008A92120FEE0D0F948A5EF05F0F009A9E348A9A24826
:2003A0006CEF0068404155544F4558454342494E0000000000000000000000000000000003
:2003C00000000000000000000000000000000000000000000000000000000000000000001D
:2003E0000000000000000000000000000000000000000000000000000000000000000000FD
:200400000000000000000000000000000000000000000000000000000000000000000000DC
:200420000000000000000000000000000000000000000000000000000000000000000000BC
:201FE000000000000000000000000000000000000000000000000000000093E362E393E3B0
:00000001FF
